{
  "contractName": "FirstToken",
  "abi": [
    {
      "inputs": [],
      "name": "_limitSupply",
      "outputs": [
        {
          "internalType": "uint256",
          "name": "",
          "type": "uint256"
        }
      ],
      "stateMutability": "view",
      "type": "function"
    },
    {
      "inputs": [],
      "name": "totalSupply",
      "outputs": [
        {
          "internalType": "uint256",
          "name": "",
          "type": "uint256"
        }
      ],
      "stateMutability": "view",
      "type": "function"
    }
  ],
  "bytecode": "0x6080604052612710600055600a600054610019919061002e565b60015534801561002857600080fd5b50610098565b60006100398261005f565b91506100448361005f565b92508261005457610053610069565b5b828204905092915050565b6000819050919050565b7f4e487b7100000000000000000000000000000000000000000000000000000000600052601260045260246000fd5b60dd806100a66000396000f3fe6080604052348015600f57600080fd5b506004361060325760003560e01c806318160ddd146037578063d1bbe26c146051575b600080fd5b603d606b565b604051604891906084565b60405180910390f35b60576071565b604051606291906084565b60405180910390f35b60005481565b60015481565b607e81609d565b82525050565b6000602082019050609760008301846077565b92915050565b600081905091905056fea26469706673582212203598e2a098638ed79424cc2f5d2169724ba02738968c04f5f65f6c0044f7d02264736f6c63430008040033",
  "immutableReferences": {},
  "source": "// SPDX-License-Identifier: MIT\r\npragma solidity ^0.8.4 ;\r\n\r\nimport \"@openzeppelin/contracts/token/ERC20/IERC20.sol\";\r\nimport \"@openzeppelin/contracts/token/ERC20/utils/SafeERC20.sol\";\r\nimport \"@openzeppelin/contracts/utils/math/SafeMath.sol\";\r\n\r\ncontract FirstToken {\r\n\r\n    using SafeMath for uint256;\r\n    // string constant public name = \"Nunmun Crypto Currency \";\r\n    // string constant public symbol = \"BD\";\r\n    uint256 public totalSupply = 10000;\r\n    uint256 public _limitSupply = (totalSupply/10);\r\n    address private admin;\r\n\r\n  }   \r\n",
  "sourcePath": "C:\\Users\\7386-85615SG 2913642\\Desktop\\HEMANG\\Blockchain\\Solidity-Programs-for-Beginners\\solidity projects\\contracts\\FirstToken.sol",
  "compiler": {
    "name": "solc",
    "version": "0.8.4+commit.c7e474f2.Emscripten.clang"
  },
  "schemaVersion": "3.4.3",
  "updatedAt": "2021-09-04T07:36:15.066Z",
  "devdoc": {
    "kind": "dev",
    "methods": {},
    "version": 1
  },
  "userdoc": {
    "kind": "user",
    "methods": {},
    "version": 1
  }
}